:040000000C946100FB
:040038000C94CB0059
:040048000C946601AD
:14008C000000000000000000000001010000484F5050455290
:1400A0005F41312E315F56322E32039F250D9949411F0109B5
:0D00B40011C16385617100000000000000B3
:1400C200CFEFD0E1CDBFDEBFCE51D0400AEA08830024E5E3F8
:1400D600F1E011E0E839F10711F00192FBCF0083ECE8F0E0B6
:1400EA00A0E0B1E010E000E00BBFE13CF10721F0C89531960D
:1400FE000D92F9CF0E94CB05FFCF0E946E095801CC24DD24E4
:140112004427552703C007D04F5F5F4F4A155B05D0F30C94DA
:1401260075090CEC14E002C00150104000300107D9F7089553
:14013A0080EE8BBB80E68ABB222428BA83E087BB25BA8FEF28
:14014E0084BB22BA21BA84E083B982B9209262008FE0809336
:1401620061002092650020926400089522242EBC83E88DBD79
:140176002CBC8DE78BBD2ABC89BD28BC80937900209278000B
:14018A0087BD26BC2FBC81E08EBD08952A923A924A925A92B7
:14019E000A931A938A939A93AA93EA93FA932FB62A9283E866
:1401B2008DBD22242CBC2090010130900201222011F43320B2
:1401C60031F0C1010197909302018093010120908C01309072
:1401DA008D01222011F4332031F0C101019790938D018093AA
:1401EE008C0120908A0130908B01222011F4332031F0C1016C
:14020200019790938B0180938A01CF9B03C001E010E002C043
:14021600002711270130E0E01E0731F4809100018F5F809327
:14022A00000103C022242092000180910401813049F48091EE
:14023E008A0190918B01019790938B0180938A0120908A0154
:1402520030908B012220D1F43320C1F401E009C084E791E0B7
:14026600E02FFF27E80FF91F222420820395209007013324B1
:14027A00402E5524241435047CF722242092070120920401EE
:14028E0029902FBEF991E991A9919991899119910991599007
:1402A200499039902990189522242AB82BB886E08093950027
:1402B60083E389B92092900088E98AB908955D9BFECF0CB96F
:1402CA0008952A923A924A925A920A932A938A939A93EA9312
:1402DE00FA932FB62A924A936A9322270CB122242092040101
:1402F200809107018F5F8093070184E791E0E0910701FF275B
:14030600E80FF91F0083809175018F3709F07FC089E190E0F2
:14031A0090938B0180938A0181E0809304018091070183313C
:14032E0088F001E009C084E791E0E02FFF27E80FF91F222433
:140342002082039583E18017A0F72224209207012090070123
:14035600822D823008F46CC084E791E0E22DFF27E80FF91FEA
:14036A008081803809F062C0422D41500BC084E791E0E42FF1
:14037E00FF27E80FF91F80818F3729F423954A9580E08417C0
:1403920090F320FD4FC081E08093360122242092040162E0BE
:1403A60042E01AC084E791E0E42FFF27E80FF91F80818F375C
:1403BA0009F4439584E791E0E42FFF27E80FF91F208080E630
:1403CE0091E0E62FFF27E80FF91F2082639543952090070136
:1403E2003324442E552424143504F4F601E009C084E791E0E4
:1403F600E02FFF27E80FF91F22242082039583E18017A0F79D
:14040A00222420920701222726C001E009C084E791E0E02F1A
:14041E00FF27E80FF91F22242082039583E18017A0F722243D
:140432002092070180910701833188F001E009C084E791E031
:14044600E02FFF27E80FF91F22242082039583E18017A0F74C
:14045A002224209207016991499129902FBEF991E9919991E6
:14046E0089912991099159904990399029901895A8958FE16E
:1404820081BD8FE081BD0895F89422242CBE20926D0052DED3
:140496006BDE08DF222425BE20926A002ABE29BE84E087BF64
:1404AA0020927D00789408950E946E09CE80AA2442E050E0DF
:1404BE0007C0FA01E00FF11F2080A20C4F5F5F4FC901069659
:1404D20048175907A4F3CA2C0C9475094A9300272091650191
:1404E60042E009C080E691E0E42FFF27E80FF91F2080020D49
:1404FA004395822F8A5F481798F386E691E0E22FFF27E80F87
:14050E00F91F2080021511F401E001C00027499108958091B4
:140522006200816080936200809162008D7F8093620008957C
:14053600809162008E7F80936200809162008D7F80936200C8
:14054A0008958091620084608093620080916200877F8093A8
:14055E0062000895809162008B7F8093620080916200877F1F
:14057200809362000895809162008E7F8093620080916200FB
:140586008260809362000895C09AC19AF2DFA89508EE13E0C1
:14059A00B6DDCCDFA89500E213E0B1DDD2DFA89500E213E0AC
:1405AE00ACDDD8DFA89504EF11E0A7CD2197C09AC19A2224B1
:1405C200288228EC30E00027F1D0A895B3DF08EC10E099DD46
:1405D600BADF08EE13E095DDA895C0DF08EC10E090DDA895B3
:1405EA001A9808EE13E08BDD1A9A0CE211E087DD1A9808EE5B
:1405FE0013E083DD219608951A9892C10E944C095801B092AB
:140612008D01A0928C01C99B03C041E050E002C04427552766
:14062600A42E442311F4002725C0C09A8CDF0CC0A895C99B44
:14063A0003C041E050E002C044275527A42E442309F408C0F1
:14064E0020908C0130908D01222071F7332061F720908C017B
:1406620030908D01222021F4332011F4002704C00CE211E0BD
:1406760048DD01E00C9451090E946009219744271A9822244A
:14068A0020920D0108EE13E0BBDF002309F44EC04AC0C99B7D
:14069E0003C061E070E002C0662777276130E0E07E0721F41C
:1406B20081E080930D013EC0A8952224288284E6849F900169
:1406C60020573E4F01E070D0602F013071F4442701E010E09A
:1406DA0016DD80910501909106010196909306018093050100
:1406EE001AC02224288284E6849F9001245D3E4F002756D0B5
:14070200A02E6A2D013069F4442701E010E0FBDC80910501C6
:1407160090910601019690930601809305018091660182369D
:14072A0009F404C04395453008F4B3CF15DF04E610E0E5DCA0
:14073E0021960C946709209097012092950120909601209257
:14075200940120909101209293012090900120929201CC9B89
:1407660003C001E010E002C00027112700939701CB9B03C076
:14077A0001E010E002C00027112700939601CA9B03C001E046
:14078E0010E002C00027112700939101C89B03C001E010E02A
:1407A20002C0002711270093900108950E947C096901602F41
:1407B600A8844427D0920201C0920101C0DF613029F5A89554
:1407CA00C19AA9DE18C0A895B8DF80919701813059F4209036
:1407DE009501222039F4A89541E0A6DE81E0809303019BC04D
:1407F20080910001823319F444279CDE94C020900101309074
:140806000201222011F7332001F78BC0662309F088C0A895F4
:14081A00C19AADDE3DC0A89590DF80919701813049F42090F4
:14082E009501222029F4A89541E081E08093030120909301A7
:1408420030909101321451F4CA9B03C061E070E002C06627BD
:1408560077276030670739F481E080930801AA2011F066DE39
:14086A0021C02090920130909001321451F4C89B03C061E013
:14087E0070E002C0662777276030670739F481E08093090180
:14089200AA2011F04FDE0AC02090010130900201222009F0E0
:1408A600BCCF332009F0B9CF2090010130900201222029F50A
:1408BA00332019F53BDECA9B03C061E070E002C0662777270A
:1408CE006030670721F4222420920A0103C081E080930A01BE
:1408E200C89B03C061E070E002C0662777276030670721F44B
:1408F600222420920B0103C081E080930B01809108018130DC
:14090A0029F422242092080120920A0180910901813029F415
:14091E0022242092090120920B01042F0C9485090E945609A3
:140932002197222420920C0144275BC0C99B03C061E070E0B6
:1409460002C0662777276130E0E07E0709F04BC0CC9B03C0AC
:14095A0061E070E002C0662777276130E0E07E0709F03FC03D
:14096E00CB9B03C061E070E002C0662777276130E0E07E07F8
:1409820009F033C0A895423040F0A895D3DD84E6849F80019B
:140996000C501E4FB6DB2224288284E6849F9001205E3C4FDC
:1409AA0001E000DF602F013039F42224288222E330E0002760
:1409BE00F7DE1CC0A895B8DD88EC849F80010C501E4F9BDB4B
:1409D2002224288284E6849F90012C503E4F0027E5DE602F81
:1409E600013021F407C081E080930C014395453008F4A2CFB5
:1409FA0080910A01813051F480910B01813031F481E0888378
:140A0E0020ED37E00027CCDE20913501332704E010E0F0D00A
:140A220021960C945B094A935A934091330155274034E0E086
:140A36005E0709F45AC080E490E08417950784F04231E0E07E
:140A4A005E0709F437C04331E0E05E0709F43EC04631E0E074
:140A5E005E0709F48AC095C04036E0E05E0709F451C0413663
:140A7200E0E05E0709F457C04236E0E05E0709F468C04036FF
:140A8600E0E05E070CF481C04738E0E05E0709F07CC087E8AE
:140A9A0080933501282F02E093D020913501332702E010E050
:140AAE00A9D022242092330100EA1FE026DB69C082E1809306
:140AC2003501282F02E080D00AE02FD12224209233015DC02E
:140AD60083E180933501282F02E074D00AE010E0CDD1222424
:140AEA002092330150C080E480933501282F02E067D05EDDAA
:140AFE0020913501332702E010E07CD02224209233013FC05A
:140B120080E680933501282F02E056D073DD22242092330145
:140B260034C081E680933501282F02E04BD0A4DD209135015B
:140B3A00332704E010E060D02224332430920601209205012B
:140B4E00209233011EC082E680933501282F02E035D0EADC1A
:140B6200FFDC20913501332704E010E049D02224209233014A
:140B76000CC086E180933501282F02E023D002E110E01BD302
:140B8A0022242092330159914991089579DC08EE13E0B5DAFD
:140B9E00A895F6DC1A9810C080913601813051F497DC0130D0
:140BB20021F4209066012092330122242092360132DFA895A0
:140BC600EFCF08950E946E09A22EC02E0FE777DB002775DB2A
:140BDA004427002772DB002770DB0C2D6EDB4C0D00E96BDBAC
:140BEE0040570A2D68DB4A0D042F65DB00E863DB0C947509D4
:140C02000E944109E22EC02E64970FE75ADB002758DBAA24A6
:140C1600002755DB002753DB0C2D51DBAC0C6E2D7727603632
:140C2A00E0E07E0709F16136E0E07E0709F43FC06236E0E047
:140C3E007E0709F44CC082E690E0861797072CF06034E0E091
:140C52007E0751F045C06738E0E07E0709F040C040EA87E84D
:140C660089833CC040EA80E4898338C041EA80E68983209093
:140C7A000B01222019F4222420920A0120900B0180E2829DCB
:140C8E00100140900A0180E1849D402C420C4A8220900301AA
:140CA200222031F081E08B8322242092030118C022242B82A5
:140CB60015C041EA81E689838091050190910601892F992700
:140CCA0090708A83809105019091060190708B8303C040EACF
:140CDE0082E68983042FEFDAA40E41E017C0CE01E42FFF27E0
:140CF200E80FF91F0081E5DA8A81803819F08B81803811F40A
:140D06000FE7DDDACE01E42FFF27E80FF91F2080A20C4395EF
:140D1A004C1538F30A2DD1DA00E8CFDA64960C9436090E944B
:140D2E007C09A02ECC9B03C041E050E002C0442755274130C9
:140D4200E0E05E0711F4662701C061E0CB9B03C041E050E06A
:140D560002C0442755274130E0E05E0711F4CC2402C0CC24A3
:140D6A00C394C99B03C041E050E002C0442755272C2C33244E
:140D7E00220C331C462E5524420C531C1A01220C331C220C74
:140D9200331C420C531C4092570122242092580120925901BA
:140DA60020925A0120900B01222019F4222420920A0120906E
:140DBA000A0180E1829D20902E01220C200C30900B0180E233
:140DCE00839D200C30900C0180E4839D200C30900D0180E812
:140DE200839D200C20925B01222420925C0120925D0120908E
:140DF6003701829D00925E010FE761DA00275FDA442700277E
:140E0A005CDA00275ADA0A2D58DA4A0D00EA55DA405602E1F1
:140E1E0052DA4E5E61E020C086E591E0E62FFF27E80FF91FA1
:140E320020803324822D803811F08F3711F40FE740DA86E507
:140E460091E0E62FFF27E80FF91F008138DA86E591E0E62F59
:140E5A00FF27E80FF91F2080420D63956930F0F2403811F074
:140E6E004F3711F40FE727DA042F25DA00E823DA0C948509A9
:140E82001A930A930E9441092197CC2461E009C088E391E098
:140E9600E62FFF27E80FF91F2224208263956930A8F3CC9B83
:140EAA0004C081E090E05C0102C0AA24BB24CB9B04C081E048
:140EBE0090E07C0102C0EE24FF24C99B03C041E050E002C002
:140ED200442755271701220C331C2501420C531C1A01220C64
:140EE600331C220C331C420C531C409257011A9A05E010E0BC
:140EFA0006D9CC9B04C081E090E07C0102C0EE24FF24CB9B2F
:140F0E0004C081E090E05C0102C0AA24BB24C99B03C041E026
:140F220050E002C0442755271501220C331C2701420C531C6A
:140F36001A01220C331C220C331C420C531C409243011A980D
:140F4A00C09AC19AFEDA81E0888328EE33E0002729DCA89508
:140F5E0087E0209043012826822D8770909157019770891710
:140F720039F42090390120923901002715D130C08091570102
:140F86008170909143019170981741F48091390181608093DD
:140F9A003901C39401E004D18091570182709091430192703A
:140FAE00981741F480913901826080933901C39402E0F4D0D4
:140FC200809157018470909143019470981741F48091390126
:140FD600846080933901C39403E0E4D0BFDAA8DA22242092D5
:140FEA00580120923A012092590120923B0120925A012092F4
:140FFE003C01CA9B04C081E090E07C0102C0EE24FF24C89BD1
:1410120003C041E050E002C04427552700E110E097010E9402
:14102600260920902E013324220C331C200E311E00E210E085
:14103A009A010E942609200E311E20925B011A9A05E010E022
:14104E005CD8CA9B04C081E090E07C0102C0EE24FF24C89B89
:1410620003C041E050E002C04427552700E110E097010E94B2
:14107600260920902E013324220C331C200E311E00E210E035
:14108A009A010E942609200E311E209247011A9880E328260C
:14109E00822D807390915B019073891749F420903D0120929F
:1410B2003D01CC2009F5002777D01EC080915B018071909137
:1410C60047019071981739F480913D01806180933D0104E08C
:1410DA0067D080915B018072909147019072981739F4809114
:1410EE003D01806280933D0105E058D0222420925C01209269
:141102003E0120925D0120923F012090370180E8829D009297
:141116005E012224209240010FE7D1D80027CFD8442700272E
:14112A00CCD80027CAD80B85C8D80B84400D00EAC4D840561C
:14113E0003E1C1D84D5E61E020C088E391E0E62FFF27E80F46
:14115200F91F20803324822D803811F08F3711F40FE7AFD8CA
:1411660088E391E0E62FFF27E80FF91F0081A7D888E391E073
:14117A00E62FFF27E80FF91F2080420D63956930F0F240383D
:14118E0011F04F3711F40FE796D8042F94D800E892D82196B5
:1411A2000E94360922960895DD98DE988EE191E0E02FFF2703
:1411B600E80FF91F208025BA08950E946009A02E0FE77DD8D6
:1411CA0000277BD84427002778D8002776D80A2D74D84A0D66
:1411DE0000EA71D8405606E16ED84A5E662777271EC08EE0E8
:1411F20091E0FB01E80FF91F20803324822D803811F08F3748
:1412060011F40FE75CD88EE091E0FB01E80FF91F008155D80D
:14121A008EE091E0FB01E80FF91F2080420D6F5F7F4F6031BA
:14122E00E0E07E07F0F2403811F04F3711F40FE742D8042F3E
:1412420040D800E83ED80C9467090A921A928A939A93029F3F
:14125600C001129F900D039F900D8C01999189911990099023
:14126A000895A990B990C990D990E990F990499159916991CF
:14127E00799108957A936A935A934A93FA92EA92DA92CA9211
:14129200BA92AA9208955A934A93BA92AA920895A990B990B2
:1412A6004991599108957A936A935A934A930895499159919E
:1412BA006991799108957A936A935A934A93BA92AA92089586
:1412CE00A990B990499159916991799108955A934A93DA92EF
:1412E200CA92BA92AA920895A990B990C990D990499159916F
:1412F60008957A936A935A934A93DA92CA92BA92AA92089586
:12130A00A990B990C990D9904991599169917991089528
:00000001FF
