:040000000C946200FA
:040038000C94CC0058
:040048000C946701AC
:14008C000000000000000000000001010000484F5050455290
:1400A0005F41312E305F56302E30039F250D9949411F0109BA
:0F00B40011C163856171000000000000000000B1
:1400C400CFEFD0E1CDBFDEBFCE51D0400AEA08830024E7E3F4
:1400D800F1E011E0EA39F10711F00192FBCF0083ECE8F0E0B2
:1400EC00A0E0B1E010E000E00BBFE33CF10721F0C895319609
:140100000D92F9CF0E94CE05FFCF0E9471095801CC24DD24DB
:140114004427552703C007D04F5F5F4F4A155B05D0F30C94D8
:1401280078090CEC14E002C00150104000300107D9F708954E
:14013C0080EE8BBB80E68ABB222428BA83E087BB25BA8FEF26
:1401500084BB22BA21BA84E083B982B9209262008FE0809334
:1401640061002092650020926400089522242EBC83E88DBD77
:140178002CBC8DE78BBD2ABC89BD28BC809379002092780009
:14018C0087BD26BC2FBC81E08EBD08952A923A924A925A92B5
:1401A0000A931A938A939A93AA93EA93FA932FB62A9283E864
:1401B4008DBD22242CBC2090010130900201222011F43320B0
:1401C80031F0C1010197909302018093010120908E0130906E
:1401DC008F01222011F4332031F0C101019790938F018093A4
:1401F0008E0120908C0130908D01222011F4332031F0C10164
:14020400019790938D0180938C01CF9B03C001E010E002C03D
:14021800002711270130E0E01E0731F4809100018F5F809325
:14022C00000103C022242092000180910401813049F48091EC
:140240008C0190918D01019790938D0180938C0120908C0148
:1402540030908D012220D1F43320C1F401E009C086E791E0B1
:14026800E02FFF27E80FF91F222420820395209007013324AF
:14027C00402E5524241435047CF722242092070120920401EC
:1402900029902FBEF991E991A9919991899119910991599005
:1402A400499039902990189522242AB82BB886E08093950025
:1402B80083E389B92092900088E98AB908955D9BFECF0CB96D
:1402CC0008952A923A924A925A920A932A938A939A93EA9310
:1402E000FA932FB62A924A936A9322270CB1222420920401FF
:1402F400809107018F5F8093070186E791E0E0910701FF2757
:14030800E80FF91F0083809177018F3709F07FC089E190E0EE
:14031C0090938D0180938C0181E08093040180910701833136
:1403300088F001E009C086E791E0E02FFF27E80FF91F22242F
:140344002082039583E18017A0F72224209207012090070121
:14035800822D823008F46CC086E791E0E22DFF27E80FF91FE6
:14036C008081803809F062C0422D41500BC086E791E0E42FED
:14038000FF27E80FF91F80818F3729F423954A9580E08417BE
:1403940090F320FD4FC081E08093380122242092040162E0BA
:1403A80042E01AC086E791E0E42FFF27E80FF91F80818F3758
:1403BC0009F4439586E791E0E42FFF27E80FF91F208082E62A
:1403D00091E0E62FFF27E80FF91F2082639543952090070134
:1403E4003324442E552424143504F4F601E009C086E791E0E0
:1403F800E02FFF27E80FF91F22242082039583E18017A0F79B
:14040C00222420920701222726C001E009C086E791E0E02F16
:14042000FF27E80FF91F22242082039583E18017A0F722243B
:140434002092070180910701833188F001E009C086E791E02D
:14044800E02FFF27E80FF91F22242082039583E18017A0F74A
:14045C002224209207016991499129902FBEF991E9919991E4
:1404700089912991099159904990399029901895A8958FE16C
:1404840081BD8FE081BD0895F89422242CBE20926D0052DED1
:140498006BDE08DF222425BE20926A002ABE29BE84E087BF62
:1404AC0020927D00789408950E947109CE80AA2442E050E0DA
:1404C00007C0FA01E00FF11F2080A20C4F5F5F4FC901069657
:1404D40048175907A4F3CA2C0C9478094A930027209167018A
:1404E80042E009C082E691E0E42FFF27E80FF91F2080020D45
:1404FC004395822F8A5F481798F388E691E0E22FFF27E80F83
:14051000F91F2080021511F401E001C00027499108958091B2
:140524006200816080936200809162008D7F8093620008957A
:14053800809162008E7F80936200809162008D7F80936200C6
:14054C000895809162008460809362000895809162008B7F18
:14056000809362000895809162008E7F80936200809162000D
:140574008260809362000895C19AF3DFA89508EE13E0C1DD8E
:14058800D7DFA89500E213E0BCDDDDDFA89500E213E0B7DD9C
:14059C00DEDFA89504EF11E0B2CD2197C19A2224288228ECD7
:1405B00030E00027F1D0A895BFDF08EC10E0A5DDC6DF08EE63
:1405C40013E0A1DDA895C7DF08EC10E09CDDA8951A9808EE8D
:1405D80013E097DD1A9A0CE211E093DD1A9808EE13E08FDD9E
:1405EC00219608951A98ABC10E944F095801B0928F01A09232
:140600008E01C99B03C041E050E002C044275527A42E4423FD
:1406140011F4002725C0C09A98DF0CC0A895C99B03C041E09F
:1406280050E002C044275527A42E442309F408C020908E01A8
:14063C0030908F01222071F7332061F720908E0130908F0176
:14065000222021F4332011F4002704C00CE211E054DD01E00B
:140664000C9454090E946309219744271A98222420920D019C
:1406780008EE13E0BBDF002309F44EC04AC0C99B03C061E04B
:14068C0070E002C0662777276130E0E07E0721F481E08093BE
:1406A0000D013EC0A8952224288284E6849F900120573E4FEB
:1406B40001E070D0602F013071F4442701E010E022DD8091A0
:1406C800050190910601019690930601809305011AC02224F6
:1406DC00288284E6849F9001245D3E4F002756D0A02E6A2D82
:1406F000013069F4442701E010E007DD809105019091060109
:140704000196909306018093050180916801823609F404C014
:140718004395453008F4B3CF1CDF04E610E0F1DC21960C9409
:14072C006A0920909901209297012090980120929601209070
:140740009301209295012090920120929401CC9B03C001E034
:1407540010E002C00027112700939901CB9B03C001E010E059
:1407680002C00027112700939801CA9B03C001E010E002C075
:14077C000027112700939301C89B03C001E010E002C0002703
:1407900011270093920108950E947F096901602FA8844427A0
:1407A400D0920201C0920101C0DF613009F03BC0A895C19ACC
:1407B800B4DE18C0A895B7DF80919901813059F420909701FF
:1407CC00222039F4A89541E0B1DE81E0809303010FC0809165
:1407E0000001843619F44427A7DE08C0209001013090020110
:1407F400222011F7332001F72090010130900201222059F458
:14080800332049F481E080933501809136018F5F8093360122
:14081C0093C0222420923501209236018DC0662309F08AC045
:14083000A895C19A98DE3FC0A89579DF20909901222049F449
:1408440080919701813029F4A89541E081E0809303012090A3
:14085800950130909301321459F4CA9B03C061E070E002C094
:14086C00662777276130E0E07E0739F481E080930801AA2003
:1408800011F05ADE22C02090940130909201321459F4C89BBB
:1408940003C061E070E002C0662777276130E0E07E0739F40C
:1408A80081E080930901AA2011F042DE0AC020900101309097
:1408BC000201222009F0BACF332009F0B7CF2090010130901D
:1408D0000201222029F5332019F52EDECA9B03C061E070E08B
:1408E40002C0662777276030670721F481E080930A0103C0BE
:1408F800222420920A01C89B03C061E070E002C06627772745
:14090C006030670721F481E080930B0103C0222420920B017D
:1409200080910801813029F422242092080120920A0180910C
:140934000901813029F422242092090120920B01042F0C9444
:1409480088090E9459092197222420920C0144274CC0C99B6E
:14095C0003C061E070E002C0662777276130E0E07E0709F077
:140970003CC0CC9B03C061E070E002C06627772760306707D1
:1409840009F031C0A895423040F0A895D3DD84E6849F80019B
:140998000C501E4FB6DB2224288284E6849F9001205E3C4FDA
:1409AC0001E0F4DE602F013009F420C0A895BEDD88EC849F78
:1409C00080010C501E4FA1DB2224288284E6849F90012C50D3
:1409D4003E4F0027DFDE602F013009F40BC081E080930C0195
:1409E80007C081E080930C014395453008F4B1CF80910A01CE
:1409FC00813071F480910B01813051F481E080933501882369
:140A100029F0888324EF31E00027BEDE20913701332704E0A0
:140A240010E0F0D021960C945E094A935A9340913301552705
:140A38004034E0E05E0709F45AC080E490E08417950784F07B
:140A4C004231E0E05E0709F437C04331E0E05E0709F43EC076
:140A60004631E0E05E0709F48AC095C04036E0E05E0709F4B2
:140A740051C04136E0E05E0709F457C04236E0E05E0709F413
:140A880068C04036E0E05E070CF481C04738E0E05E0709F0B9
:140A9C007CC087E880933701282F02E093D020913701332771
:140AB00002E010E0A9D022242092330100EA1FE024DB69C0AA
:140AC40082E180933701282F02E080D00AE02FD12224209205
:140AD80033015DC083E180933701282F02E074D00AE010E0B3
:140AEC00CDD122242092330150C080E480933701282F02E034
:140B000067D051DD20913701332702E010E07CD02224209223
:140B140033013FC080E680933701282F02E056D065DD222402
:140B28002092330134C081E680933701282F02E04BD096DD66
:140B3C0020913701332704E010E060D02224332430920601F8
:140B500020920501209233011EC082E680933701282F02E029
:140B640035D0E8DCF8DC20913701332704E010E049D022246A
:140B7800209233010CC086E180933701282F02E023D002E1F6
:140B8C0010E01BD322242092330159914991089577DC08EEA1
:140BA00013E0B3DAA895EADC1A9810C080913801813051F4FC
:140BB40095DC013021F4209068012092330122242092380146
:140BC80032DFA895EFCF08950E947109A22EC02E0FE775DB50
:140BDC00002773DB4427002770DB00276EDB0C2D6CDB4C0D6A
:140BF00000E969DB40570A2D66DB4A0D042F63DB00E861DBC9
:140C04000C9478090E944409E22EC02E64970FE758DB002783
:140C180056DBAA24002753DB002751DB0C2D4FDBAC0C6E2D6B
:140C2C0077276036E0E07E0709F16136E0E07E0709F43FC069
:140C40006236E0E07E0709F44CC082E690E0861797072CF08B
:140C54006034E0E07E0751F045C06738E0E07E0709F040C090
:140C680040EA87E889833CC040EA80E4898338C041EA80E6B4
:140C7C00898320900B01222019F4222420920A0120900B018E
:140C900080E2829D100140900A0180E1849D402C420C4A82DB
:140CA40020900301222031F081E08B8322242092030118C0E2
:140CB80022242B8215C041EA81E68983809105019091060183
:140CCC00892F992790708A83809105019091060190708B8342
:140CE00003C040EA82E68983042FEDDAA40E41E017C0CE012C
:140CF400E42FFF27E80FF91F0081E3DA8A81803819F08B818E
:140D0800803811F40FE7DBDACE01E42FFF27E80FF91F2080B8
:140D1C00A20C43954C1538F30A2DCFDA00E8CDDA64960C94A8
:140D300039090E947F09A02ECC9B03C041E050E002C04427CD
:140D440055274130E0E05E0711F4662701C061E0CB9B03C0CC
:140D580041E050E002C0442755274130E0E05E0711F4CC2402
:140D6C0002C0CC24C394C99B03C041E050E002C04427552749
:140D80002C2C3324220C331C462E5524420C531C1A01220C40
:140D9400331C220C331C420C531C40925901222420925A0143
:140DA80020925B0120925C0120900B01222019F42224209217
:140DBC000A0120900A0180E1829D20902E01220C200C3090E4
:140DD0000B0180E2839D200C30900C0180E4839D200C309018
:140DE4000D0180E8839D200C20925D01222420925E01209220
:140DF8005F0120903901829D009260010FE75FDA00275DDAFE
:140E0C00442700275ADA002758DA0A2D56DA4A0D00EA53DADE
:140E2000405602E150DA4E5E61E020C088E591E0E62FFF2735
:140E3400E80FF91F20803324822D803811F08F3711F40FE77B
:140E48003EDA88E591E0E62FFF27E80FF91F008136DA88E558
:140E5C0091E0E62FFF27E80FF91F2080420D63956930F0F265
:140E7000403811F04F3711F40FE725DA042F23DA00E821DA62
:140E84000C9488091A930A930E9444092197CC2461E009C03E
:140E98008AE391E0E62FFF27E80FF91F2224208263956930A5
:140EAC00A8F3CC9B04C081E090E05C0102C0AA24BB24CB9B69
:140EC00004C081E090E07C0102C0EE24FF24C99B03C041E0CD
:140ED40050E002C0442755271701220C331C2501420C531CB9
:140EE8001A01220C331C220C331C420C531C409259011A9A44
:140EFC0005E010E004D9CC9B04C081E090E07C0102C0EE24E3
:140F1000FF24CB9B04C081E090E05C0102C0AA24BB24C99B7F
:140F240003C041E050E002C0442755271501220C331C270141
:140F3800420C531C1A01220C331C220C331C420C531C409244
:140F4C0045011A98C09AC19AFCDA81E0888328EE33E0002752
:140F60001BDCA89587E0209045012826822D8770909159017D
:140F74009770891739F420903B0120923B01002715D130C0BE
:140F8800809159018170909145019170981741F480913B0160
:140F9C00816080933B01C39401E004D1809159018270909186
:140FB00045019270981741F480913B01826080933B01C3942C
:140FC40002E0F4D0809159018470909145019470981741F4C5
:140FD80080913B01846080933B01C39403E0E4D0B8DAA6DA85
:140FEC00222420925A0120923C0120925B0120923D012092FF
:141000005C0120923E01CA9B04C081E090E07C0102C0EE2443
:14101400FF24C89B03C041E050E002C04427552700E110E0B4
:1410280097010E94290920902E013324220C331C200E311E18
:14103C0000E210E09A010E942909200E311E20925D011A9A1E
:1410500005E010E05AD8CA9B04C081E090E07C0102C0EE243A
:14106400FF24C89B03C041E050E002C04427552700E110E064
:1410780097010E94290920902E013324220C331C200E311EC8
:14108C0000E210E09A010E942909200E311E209249011A98E4
:1410A00080E32826822D807390915D019073891749F42090DA
:1410B4003F0120923F01CC2009F5002777D01EC080915D0151
:1410C8008071909149019071981739F480913F018061809396
:1410DC003F0104E067D080915D018072909149019072981728
:1410F00039F480913F01806280933F0105E058D02224209234
:141104005E012092400120925F01209241012090390180E82D
:14111800829D009260012224209242010FE7CFD80027CDD80D
:14112C0044270027CAD80027C8D80B85C6D80B84400D00EAC0
:14114000C2D8405603E1BFD84D5E61E020C08AE391E0E62F31
:14115400FF27E80FF91F20803324822D803811F08F3711F428
:141168000FE7ADD88AE391E0E62FFF27E80FF91F0081A5D8D2
:14117C008AE391E0E62FFF27E80FF91F2080420D63956930B7
:14119000F0F2403811F04F3711F40FE794D8042F92D800E87E
:1411A40090D821960E94390922960895DD98DE988EE191E014
:1411B800E02FFF27E80FF91F208025BA08950E946309A02EE7
:1411CC000FE77BD8002779D84427002776D8002774D80A2DC4
:1411E00072D84A0D00EA6FD8405606E16CD84A5E6627772795
:1411F4001EC08EE091E0FB01E80FF91F20803324822D8038C1
:1412080011F08F3711F40FE75AD88EE091E0FB01E80FF91FF4
:14121C00008153D88EE091E0FB01E80FF91F2080420D6F5F6B
:141230007F4F6031E0E07E07F0F2403811F04F3711F40FE72A
:1412440040D8042F3ED800E83CD80C946A090A921A928A93C1
:141258009A93029FC001129F900D039F900D8C019991899195
:14126C00199009900895A990B990C990D990E990F99049916F
:1412800059916991799108957A936A935A934A93FA92EA92F3
:14129400DA92CA92BA92AA9208955A934A93BA92AA9208956A
:1412A800A990B9904991599108957A936A935A934A930895DE
:1412BC00499159916991799108957A936A935A934A93BA9299
:1412D000AA920895A990B990499159916991799108955A935D
:1412E4004A93DA92CA92BA92AA920895A990B990C990D990E8
:1412F8004991599108957A936A935A934A93DA92CA92BA9299
:14130C00AA920895A990B990C990D9904991599169917991E8
:0213200008952E
:00000001FF
